:020000040000FA
:100000000C9463000C948B000C948B000C94DC0318
:100010000C94DC030C94DC030C948B000C948B008C
:100020000C948B000C948B000C948B000C948B0024
:100030000C948B000C948B000C948B000C948B0014
:100040000C9492030C948B000C9460030C943A0370
:100050000C948B000C948B000C948B000C948B00F4
:100060000C948B000C948B000000000024002700EF
:100070002A0000000008000201000003040700003D
:1000800000000000000000000000230026002900FE
:1000900000000000250028002B00040404040404D0
:1000A0000404020202020202030303030303010227
:1000B00004081020408001020408102001020408F6
:1000C00010205404DF0611241FBECFEFD8E0DEBF9E
:1000D000CDBF11E0A0E0B1E0E6E4FEE002C0059093
:1000E0000D92A433B107D9F722E0A4E3B1E001C037
:1000F0001D92AD33B207E1F710E0C2E6D0E004C0D4
:100100002197FE010E940B07C136D107C9F70E9453
:10011000FF040C9416070C940000AF92BF92CF928C
:10012000DF92EF92FF920F931F93CF93DF936C01B7
:100130007B018B01040F151FEB015E01AE18BF0898
:10014000C017D10759F06991D601ED91FC9101904A
:10015000F081E02DC6010995892B79F7C501DF9162
:10016000CF911F910F91FF90EF90DF90CF90BF90B4
:10017000AF900895FC01538D448D252F30E0842FDE
:1001800090E0821B930B541710F0CF9608950197BF
:100190000895FC01918D828D981761F0A28DAE0FAC
:1001A000BF2FB11D5D968C91928D9F5F9F73928F33
:1001B00090E008958FEF9FEF0895FC01918D828D5F
:1001C000981731F0828DE80FF11D858D90E008952C
:1001D0008FEF9FEF0895FC01918D228D892F90E084
:1001E000805C9F4F821B91098F739927089581E846
:1001F00091E00E94EB0021E0892B09F420E0822F9E
:10020000089580E090E0892B29F00E94F700811189
:100210000C9400000895FC01A48DA80FB92FB11D06
:10022000A35ABF4F2C91848D90E001968F7399272C
:10023000848FA689B7892C93A089B1898C9183700A
:1002400080648C93938D848D981306C00288F38903
:10025000E02D80818F7D80830895EF92FF920F9330
:100260001F93CF93DF93EC0181E0888F9B8D8C8D62
:1002700098131AC0E889F989808185FF15C09FB756
:10028000F894EE89FF896083E889F9898081837019
:10029000806480839FBF81E090E0DF91CF911F91C8
:1002A0000F91FF90EF900895F62E0B8D10E00F5FE9
:1002B0001F4F0F731127E02E8C8D8E110CC00FB6BF
:1002C00007FCFACFE889F989808185FFF5CFCE0157
:1002D0000E940B01F1CFEB8DEC0FFD2FF11DE35AC6
:1002E000FF4FF0829FB7F8940B8FEA89FB898081DA
:1002F0008062CFCFCF93DF93EC01888D8823B9F054
:10030000AA89BB89E889F9898C9185FD03C0808120
:1003100086FD0DC00FB607FCF7CF8C9185FFF2CF9D
:10032000808185FFEDCFCE010E940B01E9CFDF91E7
:10033000CF91089590E0FC01EE58FF4F2491FC010D
:10034000E255FF4F3491FC01E656FF4FE491EE2356
:10035000C9F0222339F0233001F1A8F4213019F13A
:10036000223029F1F0E0EE0FFF1FE057FF4FA5917B
:10037000B4918FB7F894EC91611126C030953E236B
:100380003C938FBF08952730A9F02830C9F024305E
:1003900049F7809180008F7D03C0809180008F7726
:1003A00080938000DFCF84B58F7784BDDBCF84B5A9
:1003B0008F7DFBCF8091B0008F778093B000D2CF3C
:1003C0008091B0008F7DF9CF3E2BDACFCF93DF93B2
:1003D00090E0FC01E255FF4F249186569F4FFC01AF
:1003E00084918823D1F090E0880F991FFC01E8598F
:1003F000FF4FA591B491FC01E057FF4FC591D491F7
:1004000061110EC09FB7F8948C91E22FE0958E2376
:100410008C932881E223E8839FBFDF91CF910895D9
:100420008FB7F894EC91E22BEC938FBFF6CF3FB7E8
:10043000F8948091790190917A01A0917B01B0911B
:100440007C0126B5A89B05C02F3F19F00196A11D80
:10045000B11D3FBFBA2FA92F982F8827BC01CD010E
:10046000620F711D811D911D42E0660F771F881F6D
:10047000991F4A95D1F708958F929F92AF92BF929C
:10048000CF92DF92EF92FF924B015C010E94170224
:100490006B017C010E9417026C197D098E099F096E
:1004A000683E734081059105A8F321E0821A910806
:1004B000A108B10888EEC80E83E0D81EE11CF11C2B
:1004C00081149104A104B10429F7FF90EF90DF900B
:1004D000CF90BF90AF909F908F90089520917F0113
:1004E000309180012817390771F490917D01809136
:1004F0007E01981741F0E0917D01F0E0EC5CFE4F49
:10050000808190E008958FEF9FEF08950895EF9216
:10051000FF920F931F93CF93DF93DC015C96ED90D6
:10052000FC905D97E114F10479F481E090E013967A
:100530009C938E93129790E080E0DF91CF911F9172
:100540000F91FF90EF9008955196ED91FC91529785
:1005500050968C915097982F90950FB75E962C914E
:100560005E97122F127021FD6095F894208111235F
:1005700019F1282B2083E7012197F1F728E0462F76
:1005800050E0308160FF1AC0382B3083E70121979B
:10059000F1F7BA0175956795215089F7112381F01C
:1005A0008081892380830FBF5C968D919C910197F8
:1005B000F1F781E090E0C1CF2923DCCF3923E5CFEB
:1005C0009081892BEFCF20917F01309180012817F6
:1005D000390771F480917E0120917D0190E0805C6B
:1005E0009F4F821B910960E470E00E94E30608952A
:1005F00090E080E0089520917F01309180012817DC
:100600003907B9F490917D0180917E01981789F0A6
:10061000E0917D01F0E0EC5CFE4F808120917D0156
:1006200030E02F5F3F4F2F73332720937D0190E001
:1006300008958FEF9FEF0895FC0186E191E091838B
:10064000808380917F0190918001E817F90759F428
:10065000A389B4899C918589809589238C93109274
:10066000800110927F010895089590E080E0089540
:100670000E9411071F920F920FB60F9211242F9311
:100680003F934F935F936F937F938F939F93AF931A
:10069000BF93EF93FF9381E891E00E940B01FF91DC
:1006A000EF91BF91AF919F918F917F916F915F91EA
:1006B0004F913F912F910F900FBE0F901F90189563
:1006C0001F920F920FB60F9211242F938F939F9327
:1006D000EF93FF93E0919101F09192018081E0917D
:1006E0009701F091980182FD1BC0908180919A0141
:1006F0008F5F8F7320919B01821741F0E0919A01E7
:10070000F0E0EF57FE4F958F80939A01FF91EF91A4
:100710009F918F912F910F900FBE0F901F90189562
:100720008081F4CF1F920F920FB60F9211242F9356
:100730003F938F939F93AF93BF9380917501909157
:100740007601A0917701B09178013091740123E096
:10075000230F2D3758F50196A11DB11D209374016B
:100760008093750190937601A0937701B0937801FF
:100770008091790190917A01A0917B01B0917C01E7
:100780000196A11DB11D8093790190937A01A093E8
:100790007B01B0937C01BF91AF919F918F913F916D
:1007A0002F910F900FBE0F901F90189526E8230FE2
:1007B0000296A11DB11DD2CF1F920F920FB60F92BC
:1007C00011242F933F934F935F936F937F938F9356
:1007D0009F93AF93BF93EF93FF93E0917F01F091CD
:1007E0008001309749F0A685B7858585968D91FF64
:1007F00014C09C918923A1F4FF91EF91BF91AF9117
:100800009F918F917F916F915F914F913F912F9128
:100810000F900FBE0F901F9018959C91892361F740
:10082000A389B4899C918589809589238C93868935
:1008300097890197F1F7608D718DA685B7855585EC
:1008400038E020E0CB010197F1F7822F90E09595F9
:100850008795282F4C91452309F02068315091F756
:10086000868D81FD209580917E0190E001968F73A9
:10087000992730917D01381799F0A0917E01B0E061
:10088000AC5CBE4F2C9380937E01828D938D01973B
:10089000F1F7A389B4898C919589892B8C93ACCF7E
:1008A000868D8160868FF1CF109284011092830132
:1008B00088EE93E0A0E0B0E08093850190938601FC
:1008C000A0938701B093880124E031E03093820146
:1008D0002093810125EC30E030938E0120938D012F
:1008E00024EC30E03093900120938F0120EC30E035
:1008F000309392012093910121EC30E030939401E8
:100900002093930122EC30E03093960120939501DF
:1009100026EC30E0309398012093970110929A01D1
:1009200010929B0110929C0110929D011092210245
:10093000109220028093220290932302A09324021B
:10094000B093250286E191E090931F0280931E02EE
:100950001092350210923402109237021092360231
:10096000109239021092380210923B0210923A0211
:1009700060913C026E7F6D7F60933C026695617072
:1009800081E0682786E00E949A0161E086E00E948B
:10099000E601E4EBF0E0E491E0932E02E0EAF0E01F
:1009A000E491F0E0EE0FFF1FE057FF4F8591949127
:1009B0009093300280932F0260E085E00E94E60170
:1009C00080913C0281FD04C061E085E00E949A01B3
:1009D00085E080932A02E3EBF0E0E491E0932B02C0
:1009E000EFE9F0E0E491F0E0EE0FFF1FEA57FF4F70
:1009F0008591949190932D0280932C020895CF932A
:100A0000DF93CDB7DEB76F970FB6F894DEBF0FBE9A
:100A1000CDBF789484B5826084BD84B5816084BD87
:100A200085B5826085BD85B5816085BD80916E008C
:100A3000816080936E0010928100809181008260BD
:100A400080938100809181008160809381008091FA
:100A500080008160809380008091B10084608093E9
:100A6000B1008091B00081608093B00080917A00E5
:100A7000846080937A0080917A00826080937A000B
:100A800080917A00816080937A0080917A008068FA
:100A900080937A001092C100E0919101F09192014F
:100AA00082E08083E0918D01F0918E011082E091CF
:100AB0008F01F09190018FEC808310929901E09169
:100AC0009501F091960186E08083E0919301F09189
:100AD0009401808180618083E0919301F091940181
:100AE000808188608083E0919301F09194018081FE
:100AF00080688083E0919301F091940180818F7DE3
:100B000080831092390210923802109237021092AC
:100B10003602109235021092340285E690E09093EE
:100B20003B0280933A0290912A02963108F047C026
:100B300021E230E0309335022093340223E630E0A6
:100B4000309337022093360222E430E030933902AA
:100B5000209338022091680084E0983048F031E01A
:100B60009E3008F430E081E001C0880F3A95EAF742
:100B7000822B809368002DE630E0983050F02BE611
:100B800030E09E3030F02CE630E0963110F030E06E
:100B900020E03093320220933102292F30E0983048
:100BA00008F000C181E001C0880F9A95EAF78093B0
:100BB000330280913A0290913B020197F1F78091C4
:100BC000380290913902892B49F1E0917F01F0912F
:100BD000800182E0EE31F80709F1309739F0A389FE
:100BE000B4899C918589809589238C9380913C025E
:100BF0008E7F80933C0210927E0110927D018EE1E7
:100C000092E09093800180937F01E0913102F09116
:100C10003202808190913302892B808361E087E0EA
:100C20000E94E60161E088E00E94E60180912002D6
:100C3000909121029C838B838091220290912302C8
:100C4000A0912402B09125028D839E83AF83B88743
:100C50008091260290912702A0912802B09129024A
:100C600089879A87AB87BC8786E191E09A838983DD
:100C700080912A028D8780912B028E8780912C0291
:100C800090912D02988B8F8780912E02898B809175
:100C90002F02909130029B8B8A8B80913102909130
:100CA00032029D8B8C8B809133028E8B809134022B
:100CB00090913502988F8F8B8091360290913702F8
:100CC0009A8F898F80913802909139029C8F8B8FF7
:100CD00080913A0290913B029E8F8D8F90913C02C1
:100CE0008F8D90FB80F991FB81F98F8F60E088E018
:100CF0000E949A0164EF71E080E090E00E943C0263
:100D000061E087E00E949A0164EF71E080E090E08A
:100D10000E943C0261E088E00E949A0160ED77E069
:100D200080E090E00E943C024CE050E064E271E020
:100D3000CE0101960E948D0042E050E061E371E037
:100D4000CE0101960E948D00CE0101960E941C03E7
:100D500000E010E08EE192E00E94E302892B49F06E
:100D60008EE192E00E94FB02682F81E891E00E94F0
:100D70002D0181E891E00E94EB00892B49F081E888
:100D800091E00E94C900682F8EE192E00E948702E4
:100D900001151105F9F20E94F7008823D9F20E948B
:100DA0000000D8CF9E3040F42850310981E001C0C6
:100DB000880F2A95EAF7FBCE2E503109F7CF8EE146
:100DC00092E00C941C0397FB072E16F4009407D0B6
:100DD00077FD09D00E94F70607FC05D03EF49095F8
:100DE00081959F4F0895709561957F4F0895AA1B37
:100DF000BB1B51E107C0AA1FBB1FA617B70710F006
:100E0000A61BB70B881F991F5A95A9F78095909537
:100E1000BC01CD010895EE0FFF1F0590F491E02D68
:100E2000099481E090E0F8940C94160710E0C2E673
:100E3000D0E004C0FE010E940B072196C336D10703
:100E4000C9F7F894FFCF000000002D018D00BA0013
:100E50007A01EB00C900DD000000000087028D0070
:100E600035038602E302FB026E0241542B564552C3
:0A0E700053494F4E3F0A000D0A00DF
:107E0000112484B714BE81FFF0D085E080938100F7
:107E100082E08093C00088E18093C10086E0809377
:107E2000C20080E18093C4008EE0C9D0259A86E02C
:107E300020E33CEF91E0309385002093840096BBD3
:107E4000B09BFECF1D9AA8958150A9F7CC24DD24C4
:107E500088248394B5E0AB2EA1E19A2EF3E0BF2EE7
:107E6000A2D0813461F49FD0082FAFD0023811F036
:107E7000013811F484E001C083E08DD089C08234E0
:107E800011F484E103C0853419F485E0A6D080C0E4
:107E9000853579F488D0E82EFF2485D0082F10E0AE
:107EA000102F00270E291F29000F111F8ED06801E7
:107EB0006FC0863521F484E090D080E0DECF843638
:107EC00009F040C070D06FD0082F6DD080E0C81688
:107ED00080E7D80618F4F601B7BEE895C0E0D1E017
:107EE00062D089930C17E1F7F0E0CF16F0E7DF06D8
:107EF00018F0F601B7BEE89568D007B600FCFDCFD4
:107F0000A601A0E0B1E02C9130E011968C91119780
:107F100090E0982F8827822B932B1296FA010C0160
:107F200087BEE89511244E5F5F4FF1E0A038BF0790
:107F300051F7F601A7BEE89507B600FCFDCF97BE46
:107F4000E89526C08437B1F42ED02DD0F82E2BD052
:107F50003CD0F601EF2C8F010F5F1F4F84911BD097
:107F6000EA94F801C1F70894C11CD11CFA94CF0C13
:107F7000D11C0EC0853739F428D08EE10CD085E9AC
:107F80000AD08FE07ACF813511F488E018D01DD067
:107F900080E101D065CF982F8091C00085FFFCCF94
:107FA0009093C60008958091C00087FFFCCF809118
:107FB000C00084FD01C0A8958091C6000895E0E648
:107FC000F0E098E1908380830895EDDF803219F02E
:107FD00088E0F5DFFFCF84E1DECF1F93182FE3DFCA
:107FE0001150E9F7F2DF1F91089580E0E8DFEE27F6
:047FF000FF270994CA
:027FFE00040479
:00000001FF
