:100000000C9463000C948B000C948B000C94E00314
:100010000C94E0030C94E0030C948B000C948B0084
:100020000C948B000C948B000C948B000C948B0024
:100030000C948B000C948B000C948B000C948B0014
:100040000C943E030C948B000C94AE030C94880328
:100050000C948B000C948B000C948B000C948B00F4
:100060000C948B000C948B0000000008000201002F
:100070000003040700000000000000000000000072
:1000800023002600290000000000240027002A0089
:1000900000000000250028002B00040404040404D0
:1000A0000404020202020202030303030303010227
:1000B00004081020408001020408102001020408F6
:1000C0001020A4048F0711241FBECFEFD8E0DEBF9D
:1000D000CDBF22E0AEE4B1E001C01D92AB35B20766
:1000E000E1F711E0A0E0B1E0E0E3F4E102C0059047
:1000F0000D92AE34B107D9F710E0C2E6D0E004C0EB
:100100002197FE010E940A08C136D107C9F70E9453
:100110008D050C940B0A0C940000CF93DF93EC0137
:100120002FB7F8948091970190919801A09199012F
:10013000B0919A012FBF88879987AA87BB87E881EA
:10014000F9810284F385E02DCE01099597FF1EC049
:100150002FB7F8948091970190919801A0919901FF
:10016000B0919A012FBF488559856A857B85841B8C
:10017000950BA60BB70B4C815D816E817F81841737
:100180009507A607B707D8F28FEF9FEFDF91CF91C2
:100190000895AF92BF92CF92DF92EF92FF920F93AA
:1001A0001F93CF93DF936C017B018B01040F151F0D
:1001B000EB015E01AE18BF08C017D10759F0699175
:1001C000D601ED91FC910190F081E02DC6010995D9
:1001D000892B79F7C501DF91CF911F910F91FF9086
:1001E000EF90DF90CF90BF90AF900895FC01538DBA
:1001F000448D252F30E0842F90E0821B930B541701
:1002000010F0CF96089501970895FC01918D828D8D
:10021000981761F0A28DAE0FBF2FB11D5D968C9126
:10022000928D9F5F9F73928F90E008958FEF9FEF65
:100230000895FC01918D828D981731F0828DE80F21
:10024000F11D858D90E008958FEF9FEF0895FC01DB
:10025000918D228D892F90E0805C9F4F821B9109A8
:100260008F73992708958BE991E00E94270121E07F
:10027000892B09F420E0822F089580E090E0892BFB
:1002800029F00E94330181110C9400000895FC01B3
:10029000A48DA80FB92FB11DA35ABF4F2C91848DE7
:1002A00090E001968F739927848FA689B7892C9344
:1002B000A089B1898C91837080648C93938D848D97
:1002C000981306C00288F389E02D80818F7D80839A
:1002D0000895EF92FF920F931F93CF93DF93EC015A
:1002E00081E0888F9B8D8C8D98131AC0E889F989DD
:1002F000808185FF15C09FB7F894EE89FF896083E0
:10030000E889F98980818370806480839FBF81E060
:1003100090E0DF91CF911F910F91FF90EF900895A2
:10032000F62E0B8D10E00F5F1F4F0F731127E02E7D
:100330008C8D8E110CC00FB607FCFACFE889F989B5
:10034000808185FFF5CFCE010E944701F1CFEB8D73
:10035000EC0FFD2FF11DE35AFF4FF0829FB7F89489
:100360000B8FEA89FB8980818062CFCFCF93DF93A7
:10037000EC01888D8823B9F0AA89BB89E889F989BD
:100380008C9185FD03C0808186FD0DC00FB607FCF2
:10039000F7CF8C9185FFF2CF808185FFEDCFCE0125
:1003A0000E944701E9CFDF91CF91089520919001FC
:1003B000309191012817390771F490918E01809145
:1003C0008F01981741F0E0918E01F0E0E25BFE4F63
:1003D000808190E008958FEF9FEF08950895EF9248
:1003E000FF920F931F93CF93DF93DC015C96ED9008
:1003F000FC905D97E114F10479F481E090E01396AC
:100400009C938E93129790E080E0DF91CF911F91A3
:100410000F91FF90EF9008955196ED91FC915297B6
:1004200050968C915097982F90950FB75E962C917F
:100430005E97122F127021FD6095F8942081112390
:1004400019F1282B2083E7012197F1F728E0462FA7
:1004500050E0308160FF1AC0382B3083E7012197CC
:10046000F1F7BA0175956795215089F7112381F04D
:100470008081892380830FBF5C968D919C91019729
:10048000F1F781E090E0C1CF2923DCCF3923E5CF1C
:100490009081892BEFCF2091900130919101281705
:1004A000390771F480918F0120918E0190E0805C7A
:1004B0009F4F821B910960E470E00E94E20708955B
:1004C00090E080E0089520919001309191012817EB
:1004D0003907B9F490918E0180918F01981789F0B6
:1004E000E0918E01F0E0E25BFE4F808120918E0171
:1004F00030E02F5F3F4F2F73332720938E0190E022
:1005000008958FEF9FEF089590E080E0089542E016
:1005100050E06AE271E08BE991E00C94C900CF935E
:10052000DF93FC0101900020E9F73197AF01481BF0
:10053000590BBC018BE991E00E94C900EC010E94BB
:1005400087028C0F9D1FDF91CF9108950F931F930A
:10055000CF93DF93EC0188819981009759F02A812C
:100560003B812617370730F081E0DF91CF911F9153
:100570000F9108958B016F5F7F4F0E94350900979F
:1005800059F0998388831B830A832C813D81232B17
:1005900059F7FC011082E8CF80E0E7CFCF93DF93DB
:1005A000EC0188819981009711F00E94AC081982B2
:1005B00018821D821C821B821A82DF91CF910895BE
:1005C000CF92DF92EF92FF920F931F93CF93DF931F
:1005D00000D0CDB7DEB78C016B01FC011182108217
:1005E000138212821582148270E060E00E94A602DB
:1005F000811126C0C8010E94CE02C6010E948D0052
:1006000097FD28C089831A82F801E480F580FFEF06
:10061000EF1AFF0AB701C8010E94A602882369F3F6
:10062000F8012081318184819581BE016F5F7F4F08
:10063000820F931F0E94040AF801F582E482DDCF45
:10064000F801158214826CE271E0808191810E9430
:10065000040AD3CFC8010F900F90DF91CF911F9163
:100660000F91FF90EF90DF90CF900895FC01808173
:100670009181009711F00C94AC0808951F920F928D
:100680000FB60F9211242F933F938F939F93AF93A5
:10069000BF938091970190919801A0919901B09199
:1006A0009A013091960123E0230F2D3758F50196DA
:1006B000A11DB11D209396018093970190939801FD
:1006C000A0939901B0939A01809192019091930126
:1006D000A0919401B09195010196A11DB11D809347
:1006E000920190939301A0939401B0939501BF91CF
:1006F000AF919F918F913F912F910F900FBE0F90CF
:100700001F90189526E8230F0296A11DB11DD2CF88
:100710001F920F920FB60F9211242F933F934F9376
:100720005F936F937F938F939F93AF93BF93EF9359
:10073000FF938BE991E00E944701FF91EF91BF91F8
:10074000AF919F918F917F916F915F914F913F9169
:100750002F910F900FBE0F901F9018951F920F9220
:100760000FB60F9211242F938F939F93EF93FF93C4
:10077000E091AB01F091AC018081E091B101F09189
:10078000B20182FD1BC090818091B4018F5F8F7395
:100790002091B501821741F0E091B401F0E0E556F7
:1007A000FE4F958F8093B401FF91EF919F918F91B0
:1007B0002F910F900FBE0F901F9018958081F4CF4E
:1007C0001F920F920FB60F9211242F933F934F93C6
:1007D0005F936F937F938F939F93AF93BF93EF93A9
:1007E000FF93E0919001F0919101309749F0A68537
:1007F000B7858585968D91FF14C09C918923A1F4BE
:10080000FF91EF91BF91AF919F918F917F916F91E8
:100810005F914F913F912F910F900FBE0F901F90BE
:1008200018959C91892361F7A389B4899C91858946
:10083000809589238C93868997890197F1F7608D3C
:10084000718DA685B785558538E020E0CB010197ED
:10085000F1F7822F90E095958795282F4C914523AD
:1008600009F02068315091F7868D81FD20958091A7
:100870008F0190E001968F73992730918E01381780
:1008800099F0A0918F01B0E0A25BBE4F2C938093B2
:100890008F01828D938D0197F1F7A389B4898C9193
:1008A0009589892B8C93ACCF868D8160868FF1CF13
:1008B00090E0FC01E859FF4F2491FC01E255FF4F05
:1008C0003491FC01E656FF4FE491EE23C9F0222358
:1008D00039F0233001F1A8F4213019F1223029F147
:1008E000F0E0EE0FFF1FE057FF4FA591B4918FB7D7
:1008F000F894EC91611126C030953E233C938FBF54
:1009000008952730A9F02830C9F0243049F78091A4
:1009100080008F7D03C0809180008F77809380005E
:10092000DFCF84B58F7784BDDBCF84B58F7DFBCFE0
:100930008091B0008F778093B000D2CF8091B000CB
:100940008F7DF9CF3E2BDACF0F931F93CF93DF9399
:1009500010929E0110929D0188EE93E0A0E0B0E01D
:1009600080939F019093A001A093A101B093A20155
:100970002AE031E030939C0120939B0125EC30E08C
:100980003093A8012093A70124EC30E03093AA0112
:100990002093A90120EC30E03093AC012093AB010F
:1009A00021EC30E03093AE012093AD0122EC30E039
:1009B0003093B0012093AF0126EC30E03093B201C8
:1009C0002093B1011092B4011092B5011092B601BA
:1009D0001092B70110923B0210923A0280933C02AF
:1009E00090933D02A0933E02B0933F028CE191E0D0
:1009F000909339028093380210924F0210924E0267
:100A00001092510210925002109253021092520210
:100A10001092550210925402609156026E7F6D7FC3
:100A2000609356026695617081E0682786E00E94B7
:100A3000580444EB50E0FA01649180EA90E0FC0134
:100A40002491222399F030E0220F331FF901EA5755
:100A5000FF4FA591B491F901E057FF4F25913491D3
:100A60002FB7F8943C91632B6C932FBFFA014491FC
:100A700040934802FC018491E82FF0E0EE0FFF1F45
:100A8000E057FF4F8591949190934A0280934902D9
:100A900003EB10E0F8012491CFE9D0E0FE0184914E
:100AA0008823C9F090E0880F991FFC01EA57FF4F97
:100AB000A591B491FC01E057FF4F459154913FB788
:100AC000F8949C91822F809598239C93FA019081B1
:100AD000892380833FBF8091560281FD04C061E07D
:100AE00085E00E94580485E080934402F801049157
:100AF00000934502FE01C491EC2FF0E0EE0FFF1FC2
:100B0000E458FF4F85919491909347028093460259
:100B1000DF91CF911F910F910895CF93DF93CDB7C0
:100B2000DEB72C970FB6F894DEBF0FBECDBF78941A
:100B300084B5826084BD84B5816084BD85B58260E2
:100B400085BD85B5816085BD80916E008160809393
:100B50006E001092810080918100826080938100FC
:100B6000809181008160809381008091800081600C
:100B7000809380008091B10084608093B100809167
:100B8000B00081608093B00080917A00846080938F
:100B90007A0080917A00826080937A0080917A0056
:100BA000816080937A0080917A00806880937A00D7
:100BB0001092C100E091AB01F091AC0182E0808322
:100BC000E091A701F091A8011082E091A901F091B4
:100BD000AA018FEC80831092B301E091AF01F091F4
:100BE000B00186E08083E091AD01F091AE0180819B
:100BF00080618083E091AD01F091AE0180818860D9
:100C00008083E091AD01F091AE01808180688083A6
:100C1000E091AD01F091AE0180818F7D80838DE206
:100C200091E00E948F021092530210925202109291
:100C300051021092500210924F0210924E0285E61D
:100C400090E0909355028093540290914402963123
:100C500008F047C021E230E030934F0220934E026B
:100C600023E630E0309351022093500222E430E03A
:100C700030935302209352022091680084E0983010
:100C800048F031E09E3008F430E081E001C0880F88
:100C90003A95EAF7822B809368002DE630E0983091
:100CA00050F02BE630E09E3030F02CE630E096310C
:100CB00010F030E020E030934C0220934B02292FBB
:100CC00030E0983008F080C081E001C0880F9A952C
:100CD000EAF780934D02809154029091550201975A
:100CE000F1F78091520290915302892B49F1E091E2
:100CF0009001F091910182E0E833F80709F1309713
:100D000039F0A389B4899C918589809589238C9336
:100D1000809156028E7F8093560210928F0110921E
:100D20008E0188E392E09093910180939001E0918D
:100D30004B02F0914C02808190914D02892B80836F
:100D400080E0E82E80E0F82E88E392E00E944B02DB
:100D5000892B09F47DC068E372E0CE0107960E94FA
:100D6000E0021A8219821C821B821E821D8263E0AD
:100D700070E0CE0101960E94A602811132C0CE0120
:100D800001960E94CE024B855C856F8178858BE948
:100D900091E00E94C9000E9487022D813E818B85CF
:100DA0009C852817390709F04BC089819A816F818A
:100DB00078850097A1F161157105F1F4232BE1F11C
:100DC000FC01808190E036C09E3040F4285031090B
:100DD00081E001C0880F2A95EAF77BCF2E503109B8
:100DE000F7CF83E090E09E838D8363E371E0898198
:100DF0009A810E94040AC7CF0E94FB091BC080E1B0
:100E000090E09E838D836DE371E089819A810E94D9
:100E1000040A45C0CE0101960E94CE0262C061154F
:100E2000710551F0232B41F0FB01808190E09195F9
:100E300081959109892B21F487E391E00E948F022B
:100E4000CE0101960E943603CE0107960E9436031A
:100E50008BE991E00E942701892B09F454C06BE9CA
:100E600071E0CE0107960E94E0024B855C856F81A0
:100E7000788588E392E00E94C9001A8219821C8258
:100E80001B821E821D8260E170E0CE0101960E94ED
:100E9000A6028111B4CFCE0101960E94CE02CF806E
:100EA000D884C114D10409F4B5CF0B851C85011574
:100EB0001105B9F08D819E81080F191FB801CE016F
:100EC00001960E94A602882309F4A4CF29813A81C1
:100ED0008D819E81B601820F931F0E94040A1E839A
:100EE0000D834D815E8169817A818BE991E00E9459
:100EF000C9000E948702CE0101960E943603CE01EE
:100F000007960E943603E114F10409F41DCF0E94F4
:100F10003301882309F418CF0E94000015CF8CE11B
:100F200091E09093390280933802809190019091E2
:100F300091018853924071F4E0914B02F0914C0280
:100F4000908180914D028095892380831092910138
:100F50001092900108952F923F924F925F926F925C
:100F60007F928F929F92AF92BF92CF92DF92EF9239
:100F7000FF920F931F93CF93DF93CDB7DEB7CA1BBA
:100F8000DB0B0FB6F894DEBF0FBECDBF09942A88E5
:100F9000398848885F846E847D848C849B84AA848D
:100FA000B984C884DF80EE80FD800C811B81AA811A
:100FB000B981CE0FD11D0FB6F894DEBF0FBECDBFE5
:100FC000ED01089597FB072E16F4009407D077FDE6
:100FD00009D00E94F60707FC05D03EF49095819554
:100FE0009F4F0895709561957F4F0895AA1BBB1B75
:100FF00051E107C0AA1FBB1FA617B70710F0A61B19
:10100000B70B881F991F5A95A9F780959095BC0139
:10101000CD010895EE0FFF1F0590F491E02D099486
:101020000F931F93CF93DF938230910510F482E0EA
:1010300090E0E0915902F0915A0230E020E0B0E0F7
:10104000A0E0309799F42115310509F44AC0281B16
:10105000390B24303105D8F58A819B8161157105E2
:1010600089F1FB0193838283FE0111C0408151818C
:101070000281138148175907E0F04817590799F47E
:10108000109761F012960C93129713961C93329658
:10109000CF01DF91CF911F910F91089500935902D5
:1010A00010935A02F4CF2115310551F0421753071E
:1010B00038F0A901DB019A01BD01DF01F801C1CFC0
:1010C000EF01F9CF90935A0280935902CDCFFE01E0
:1010D000E20FF31F819391932250310939832883C2
:1010E000D7CF2091570230915802232B41F4209101
:1010F000020130910301309358022093570220914E
:101100000001309101012115310541F42DB73EB7A1
:101110004091040150910501241B350BE0915702C9
:10112000F0915802E217F307A0F42E1B3F0B28178B
:10113000390778F0AC014E5F5F4F2417350748F050
:101140004E0F5F1F50935802409357028193919323
:101150009FCFF0E0E0E09CCFCF93DF930097E9F0E2
:10116000FC01329713821282A0915902B0915A0267
:10117000ED0130E020E01097A1F420813181820F51
:10118000931F20915702309158022817390709F010
:1011900061C0F0935802E0935702DF91CF91089518
:1011A000EA01CE17DF07E8F54A815B819E01411510
:1011B0005105B1F7E901FB83EA8349915991C40FC5
:1011C000D51FEC17FD0761F4808191810296840F91
:1011D000951FE90199838883828193819B838A8308
:1011E000F0E0E0E012968D919C9113970097B9F58D
:1011F0002D913C911197CD010296820F931F209162
:101200005702309158022817390739F6309751F5AF
:1012100010925A0210925902B0935802A0935702AA
:10122000BCCFD383C28340815181840F951FC817DF
:10123000D90761F44E5F5F4F88819981480F591F2C
:10124000518340838A819B81938382832115310559
:1012500009F0B0CFF0935A02E09359029ECFFD01FE
:10126000DC01C0CF13821282D7CFB0E0A0E0EBE365
:10127000F9E00C94AD078C01009751F4CB010E946A
:1012800010088C01C801CDB7DEB7E0E10C94C907A6
:10129000FC01E60FF71F9C0122503109E217F3070A
:1012A00008F49DC0D901CD91DC911197C617D707DD
:1012B00098F0C530D10530F3CE0104978617970713
:1012C00008F3C61BD70B2297C193D1936D937C93E0
:1012D000CF010E94AC08D6CF5B01AC1ABD0A4C010D
:1012E0008C0E9D1EA0915902B0915A02512C412C96
:1012F000F12CE12C109731F5809157029091580212
:101300008815990509F05CC04616570608F058C0C4
:101310008091000190910101009741F48DB79EB733
:101320004091040150910501841B950BE817F907C2
:1013300008F055C0F0935802E0935702F901718309
:101340006083A0CF8D919C91119712966C9012970B
:1013500013967C901397A815B90559F56C0142E0D6
:10136000C40ED11CCA14DB0420F1AC014A195B097C
:10137000DA011296159780F062827382518340835E
:10138000D9016D937C93E114F10471F0D7011396A8
:10139000FC93EE93129776CF22968C0F9D1FF90146
:1013A00091838083F301EFCFF0935A02E0935902C7
:1013B00069CF4816590608F42C017D01D3019ACF54
:1013C000CB010E9410087C01009749F0AE01B801E2
:1013D0000E94F209C8010E94AC08870153CF10E0B7
:1013E00000E050CFFB01DC0102C001900D924150A2
:1013F0005040D8F70895FB01DC018D9101908019D0
:101400000110D9F3990B0895FB01DC0101900D92B5
:101410000020E1F7089510E0C2E6D0E004C0FE012C
:101420000E940A082196C336D107C9F7F894FFCF66
:1014300000005B028000000000006901C900F600A6
:10144000B60127010501190100000000EF01C900E4
:101450008402EE014B026302D6010D0A004C69734F
:10146000746F0031323300494755414C00456E7668
:0E14700069616E646F206461746F733A2000CE
:00000001FF
