:020000040000FA
:100000000C9463000C948B000C948B000C940104F2
:100010000C9401040C9401040C948B000C948B0040
:100020000C948B000C948B000C948B000C948B0024
:100030000C948B000C948B000C948B000C948B0014
:100040000C94B7030C948B000C9485030C945F0301
:100050000C948B000C948B000C948B000C948B00F4
:100060000C948B000C948B000000000024002700EF
:100070002A0000000008000201000003040700003D
:1000800000000000000000000000230026002900FE
:1000900000000000250028002B00040404040404D0
:1000A0000404020202020202030303030303010227
:1000B00004081020408001020408102001020408F6
:1000C00010207904AB0711241FBECFEFD8E0DEBFAC
:1000D000CDBF22E0AAE6B1E001C01D92A63FB20763
:1000E000E1F711E0A0E0B1E0EEE2F0E102C005903E
:1000F0000D92AA36B107D9F710E0C2E6D0E004C0ED
:100100002197FE010E94FF07C136D107C9F70E945F
:1001100024050C940A080C940000AF92BF92CF9271
:10012000DF92EF92FF920F931F93CF93DF936C01B7
:100130007B018B01040F151FEB015E01AE18BF0898
:10014000C017D10759F06991D601ED91FC9101904A
:10015000F081E02DC6010995892B79F7C501DF9162
:10016000CF911F910F91FF90EF90DF90CF90BF90B4
:10017000AF900895FC01538D448D252F30E0842FDE
:1001800090E0821B930B541710F0CF9608950197BF
:100190000895FC01918D828D981761F0A28DAE0FAC
:1001A000BF2FB11D5D968C91928D9F5F9F73928F33
:1001B00090E008958FEF9FEF0895FC01918D828D5F
:1001C000981731F0828DE80FF11D858D90E008952C
:1001D0008FEF9FEF0895FC01918D228D892F90E084
:1001E000805C9F4F821B91098F73992708958AE342
:1001F00092E00E94EB0021E0892B09F420E0822F9D
:10020000089580E090E0892B29F00E94F700811189
:100210000C9400000895FC01A48DA80FB92FB11D06
:10022000A35ABF4F2C91848D90E001968F7399272C
:10023000848FA689B7892C93A089B1898C9183700A
:1002400080648C93938D848D981306C00288F38903
:10025000E02D80818F7D80830895EF92FF920F9330
:100260001F93CF93DF93EC0181E0888F9B8D8C8D62
:1002700098131AC0E889F989808185FF15C09FB756
:10028000F894EE89FF896083E889F9898081837019
:10029000806480839FBF81E090E0DF91CF911F91C8
:1002A0000F91FF90EF900895F62E0B8D10E00F5FE9
:1002B0001F4F0F731127E02E8C8D8E110CC00FB6BF
:1002C00007FCFACFE889F989808185FFF5CFCE0157
:1002D0000E940B01F1CFEB8DEC0FFD2FF11DE35AC6
:1002E000FF4FF0829FB7F8940B8FEA89FB898081DA
:1002F0008062CFCFCF93DF93EC01888D8823B9F054
:10030000AA89BB89E889F9898C9185FD03C0808120
:1003100086FD0DC00FB607FCF7CF8C9185FFF2CF9D
:10032000808185FFEDCFCE010E940B01E9CFDF91E7
:10033000CF91089590E0FC01EE58FF4F2491FC010D
:10034000E255FF4F3491FC01E656FF4FE491EE2356
:10035000C9F0222339F0233001F1A8F4213019F13A
:10036000223029F1F0E0EE0FFF1FE057FF4FA5917B
:10037000B4918FB7F894EC91611126C030953E236B
:100380003C938FBF08952730A9F02830C9F024305E
:1003900049F7809180008F7D03C0809180008F7726
:1003A00080938000DFCF84B58F7784BDDBCF84B5A9
:1003B0008F7DFBCF8091B0008F778093B000D2CF3C
:1003C0008091B0008F7DF9CF3E2BDACFCF93DF93B2
:1003D00090E0FC01E255FF4F249186569F4FFC01AF
:1003E00084918823D1F090E0880F991FFC01E8598F
:1003F000FF4FA591B491FC01E057FF4FC591D491F7
:1004000061110EC09FB7F8948C91E22FE0958E2376
:100410008C932881E223E8839FBFDF91CF910895D9
:100420008FB7F894EC91E22BEC938FBFF6CF3FB7E8
:10043000F8948091AF019091B001A091B101B09179
:10044000B20126B5A89B05C02F3F19F00196A11D4A
:10045000B11D3FBFBA2FA92F982F8827BC01CD010E
:10046000620F711D811D911D42E0660F771F881F6D
:10047000991F4A95D1F708958F929F92AF92BF929C
:10048000CF92DF92EF92FF920E9417024B015C0124
:1004900084EFC82EDD24D394E12CF12C0E941702A6
:1004A000681979098A099B09683E7340810591059D
:1004B000A8F321E0C21AD108E108F10888EE880EFD
:1004C00083E0981EA11CB11CC114D104E104F10405
:1004D00029F7FF90EF90DF90CF90BF90AF909F9063
:1004E0008F9008952091B5013091B60128173907F2
:1004F00071F49091B3018091B401981741F0E091AB
:10050000B301F0E0E659FE4F808190E008958FEF4F
:100510009FEF08950895EF92FF920F931F93CF934B
:10052000DF93DC015C96ED90FC905D97E114F104A3
:1005300079F481E090E013969C938E93129790E06B
:1005400080E0DF91CF911F910F91FF90EF90089580
:100550005196ED91FC91529750968C915097982F0F
:1005600090950FB75E962C915E97122F127021FD19
:100570006095F8942081112319F1282B2083E7013D
:100580002197F1F728E0462F50E0308160FF1AC034
:10059000382B3083E7012197F1F7BA0175956795FC
:1005A000215089F7112381F08081892380830FBF37
:1005B0005C968D919C910197F1F781E090E0C1CF1D
:1005C0002923DCCF3923E5CF9081892BEFCF2091F0
:1005D000B5013091B6012817390771F48091B40143
:1005E0002091B30190E0805C9F4F821B910960E4F1
:1005F00070E00E94B507089590E080E00895209192
:10060000B5013091B60128173907B9F49091B301BB
:100610008091B401981789F0E091B301F0E0E659B8
:10062000FE4F80812091B30130E02F5F3F4F2F7349
:1006300033272093B30190E008958FEF9FEF089543
:10064000E091B501F091B601E817F90769F4A389C3
:10065000B4899C918589809589238C931092B601E9
:100660001092B50181E0089580E00895089590E02A
:1006700080E00895FB0101900020E9F73197AF0178
:10068000461B570BDC01ED91FC910280F381E02DBC
:1006900009940F931F93CF93DF93EC010E943A03C9
:1006A0008C0164E271E0CE010E943A03800F911F39
:1006B000DF91CF911F910F9108950E9405081F921D
:1006C0000F920FB60F9211242F933F934F935F9386
:1006D0006F937F938F939F93AF93BF93EF93FF930A
:1006E0008AE392E00E940B01FF91EF91BF91AF91DD
:1006F0009F918F917F916F915F914F913F912F913A
:100700000F900FBE0F901F9018951F920F920FB66B
:100710000F9211242F938F939F93EF93FF93E09168
:100720004A02F0914B028081E0915002F091510217
:1007300082FD1BC09081809153028F5F8F73209147
:100740005402821741F0E0915302F0E0E65CFD4F65
:10075000958F80935302FF91EF919F918F912F91ED
:100760000F900FBE0F901F9018958081F4CF1F92AD
:100770000F920FB60F9211242F933F938F939F9355
:10078000AF93BF938091AB019091AC01A091AD016B
:10079000B091AE013091AA0123E0230F2D3758F517
:1007A0000196A11DB11D2093AA018093AB019093E6
:1007B000AC01A093AD01B093AE018091AF019091D7
:1007C000B001A091B101B091B2010196A11DB11D7E
:1007D0008093AF019093B001A093B101B093B201A7
:1007E000BF91AF919F918F913F912F910F900FBE2D
:1007F0000F901F90189526E8230F0296A11DB11D9A
:10080000D2CF1F920F920FB60F9211242F933F93C6
:100810004F935F936F937F938F939F93AF93BF9308
:10082000EF93FF93E091B501F091B601309749F055
:10083000A685B7858585968D91FF14C09C918923E7
:10084000A1F4FF91EF91BF91AF919F918F917F9113
:100850006F915F914F913F912F910F900FBE0F902D
:100860001F9018959C91892361F7A389B4899C9165
:100870008589809589238C93868997890197F1F7DB
:10088000608D718DA685B785558538E020E0CB0158
:100890000197F1F7822F90E095958795282F4C913D
:1008A000452309F02068315091F7868D81FD209510
:1008B0008091B40190E001968F7399273091B30134
:1008C000381799F0A091B401B0E0A659BE4F2C930F
:1008D0008093B401828D938D0197F1F7A389B48938
:1008E0008C919589892B8C93ACCF868D8160868F76
:1008F000F1CF10923D0210923C0288EE93E0A0E00E
:10090000B0E080933E0290933F02A0934002B093E8
:10091000410224E031E030933B0220933A0225EC7F
:1009200030E0309347022093460224EC30E03093CD
:1009300049022093480220EC30E030934B02209390
:100940004A0221EC30E030934D0220934C0222EC1D
:1009500030E030934F0220934E0226EC30E030938B
:10096000510220935002109253021092540210929E
:100970005502109256021092DA021092D902809318
:10098000DB029093DC02A093DD02B093DE0286E1ED
:1009900091E09093D8028093D7021092EE021092C9
:1009A000ED021092F0021092EF021092F2021092F9
:1009B000F1021092F4021092F3026091F5026E7F40
:1009C0006D7F6093F5026695617081E0682786E02F
:1009D0000E949A0161E086E00E94E601E4EBF0E00B
:1009E000E491E093E702E0EAF0E0E491F0E0EE0F5A
:1009F000FF1FE057FF4F859194919093E9028093F8
:100A0000E80260E085E00E94E6018091F50281FD48
:100A100004C061E085E00E949A0185E08093E302D2
:100A2000E3EBF0E0E491E093E402EFE9F0E0E4913D
:100A3000F0E0EE0FFF1FEA57FF4F859194919093DE
:100A4000E6028093E5020895CF93DF93CDB7DEB73A
:100A5000C054D1090FB6F894DEBF0FBECDBF789455
:100A600084B5826084BD84B5816084BD85B58260B3
:100A700085BD85B5816085BD80916E008160809364
:100A80006E001092810080918100826080938100CD
:100A900080918100816080938100809180008160DD
:100AA000809380008091B10084608093B100809138
:100AB000B00081608093B00080917A008460809360
:100AC0007A0080917A00826080937A0080917A0027
:100AD000816080937A0080917A00806880937A00A8
:100AE0001092C100E0914A02F0914B0282E08083B3
:100AF000E0914602F09147021082E0914802F091A5
:100B000049028FEC808310925202E0914E02F091E4
:100B10004F0286E08083E0914C02F0914D0280818B
:100B200080618083E0914C02F0914D028081886069
:100B30008083E0914C02F0914D0280818068808337
:100B4000E0914C02F0914D0280818F7D8083109264
:100B5000F2021092F1021092F0021092EF02109243
:100B6000EE021092ED0285E690E09093F4028093FD
:100B7000F3029091E302963108F047C021E230E0A1
:100B80003093EE022093ED0223E630E03093F00242
:100B90002093EF0222E430E03093F2022093F1023E
:100BA0002091680084E0983048F031E09E3008F4ED
:100BB00030E081E001C0880F3A95EAF7822B8093FC
:100BC00068002DE630E0983050F02BE630E09E30A3
:100BD00030F02CE630E0963110F030E020E0309339
:100BE000EB022093EA02292F30E0983008F0A6C1EA
:100BF00081E001C0880F9A95EAF78093EC0280911A
:100C0000F3029091F4020197F1F78091F102909133
:100C1000F202892B21F18091B5019091B60122E079
:100C2000873D9207E1F0009711F00E942003809128
:100C3000F5028E7F8093F5021092B4011092B301F9
:100C400087ED92E09093B6018093B501E091EA02BE
:100C5000F091EB0280819091EC02892B808361E01E
:100C600087E00E94E60161E088E00E94E60161E021
:100C70008DE00E94E60167E271E08AE392E00E9463
:100C8000490306E111E088EBC82E81E0D82E9AE0F6
:100C9000492E512C612C712C20E0A22E20E0B22E86
:100CA000992493948091D9029091DA029DA38CA308
:100CB0008091DB029091DC02A091DD02B091DE0216
:100CC0008EA39FA3A8A7B9A78091DF029091E0020D
:100CD000A091E102B091E2028AA79BA7ACA7BDA7B1
:100CE0001BA30AA38091E3028EA78091E4028FA741
:100CF0008091E5029091E60299AB88AB8091E70282
:100D00008AAB8091E8029091E9029CAB8BAB809119
:100D1000EA029091EB029EAB8DAB8091EC028FAB1F
:100D20008091ED029091EE0299AF88AF8091EF0231
:100D30009091F0029BAF8AAF8091F1029091F20204
:100D40009DAF8CAF8091F3029091F4029FAF8EAF74
:100D50009091F50221968FAD219790FB80F991FB40
:100D600081F921968FAF21978AE392E00E94EB00F0
:100D7000892B09F48CC08AE392E00E94C900F82E06
:100D800080913802909139029C012F5F3F4F309340
:100D900039022093380288549E4FFC01F082FDE214
:100DA000CF16F1E0DF0609F063C060E371E08AE38B
:100DB00092E00E9449038CA19DA19C838B838EA10C
:100DC0009FA1A8A5B9A58D839E83AF83B8878AA567
:100DD0009BA5ACA5BDA589879A87AB87BC871A83DD
:100DE00009838EA58D878FA58E8788A999A9988B51
:100DF0008F878AA9898B8BA99CA99B8B8A8B8DA9AC
:100E00009EA99D8B8C8B8FA98E8B88AD99AD988F69
:100E10008F8B8AAD9BAD9A8F898F8CAD9DAD9C8F4A
:100E20008B8F8EAD9FAD9E8F8D8F21969FAD21971D
:100E30008F8D90FB80F991FB81F98F8F62E471E0D7
:100E40008AE392E00E9449030E943C0260E087E04E
:100E50000E949A010E943C0261E571E0CE01019678
:100E60000E9449031A830983CE0101960E94200340
:100E70002AE0F2120CC06BE571E08AE392E00E9476
:100E80003A0310923902109238029092B701809181
:100E9000B701882391F1F60101900020E9F79F0145
:100EA000295B314050E040E019A27E01F1E2EF0EF3
:100EB000F11CCA01B901A30192010E94C907605D3A
:100EC000F70162937F01211531054105510589F72D
:100ED000309729F0BF018AE392E00E943A0364E26E
:100EE00071E08AE392E00E943A0368EB71E08AE3E2
:100EF00092E00E9449031092B7011BA30AA3CE01FE
:100F000082960E94200387ED92E00E94E702892BDF
:100F100049F087ED92E00E94FF02682F8AE392E099
:100F20000E942D01A114B10409F4BCCE0E94F70067
:100F3000882309F4B7CE0E940000B4CE9E3040F45E
:100F40002850310981E001C0880F2A95EAF755CE73
:100F50002E503109F7CF86E191E09093D80280932B
:100F6000D70287ED92E00C94200397FB072E16F42E
:100F7000009407D077FD09D00E94EB0707FC05D04D
:100F80003EF4909581959F4F0895709561957F4FA0
:100F90000895A1E21A2EAA1BBB1BFD010DC0AA1FBA
:100FA000BB1FEE1FFF1FA217B307E407F50720F0D2
:100FB000A21BB30BE40BF50B661F771F881F991F4D
:100FC0001A9469F760957095809590959B01AC0196
:100FD000BD01CF010895AA1BBB1B51E107C0AA1F89
:100FE000BB1FA617B70710F0A61BB70B881F991FCA
:100FF0005A95A9F780959095BC01CD010895EE0F03
:10100000FF1F0590F491E02D099481E090E0F894A1
:101010000C940A0810E0C2E6D0E004C0FE010E9471
:10102000FF072196C336D107C9F7F894FFCF000018
:1010300000002D018D00BA007A01EB00C900DD002F
:10104000000000008B028D0037038A02E702FF02D6
:1010500072020D0A004C6973746F00310A003E2061
:1010600053746F7070696E672041542E2E2E2000CD
:1010700073746F705F41545F6D6F64652829004120
:10108000542B52455345540A002D2D5B4E45572095
:081090004C494E455D2D2D0079
:107E0000112484B714BE81FFF0D085E080938100F7
:107E100082E08093C00088E18093C10086E0809377
:107E2000C20080E18093C4008EE0C9D0259A86E02C
:107E300020E33CEF91E0309385002093840096BBD3
:107E4000B09BFECF1D9AA8958150A9F7CC24DD24C4
:107E500088248394B5E0AB2EA1E19A2EF3E0BF2EE7
:107E6000A2D0813461F49FD0082FAFD0023811F036
:107E7000013811F484E001C083E08DD089C08234E0
:107E800011F484E103C0853419F485E0A6D080C0E4
:107E9000853579F488D0E82EFF2485D0082F10E0AE
:107EA000102F00270E291F29000F111F8ED06801E7
:107EB0006FC0863521F484E090D080E0DECF843638
:107EC00009F040C070D06FD0082F6DD080E0C81688
:107ED00080E7D80618F4F601B7BEE895C0E0D1E017
:107EE00062D089930C17E1F7F0E0CF16F0E7DF06D8
:107EF00018F0F601B7BEE89568D007B600FCFDCFD4
:107F0000A601A0E0B1E02C9130E011968C91119780
:107F100090E0982F8827822B932B1296FA010C0160
:107F200087BEE89511244E5F5F4FF1E0A038BF0790
:107F300051F7F601A7BEE89507B600FCFDCF97BE46
:107F4000E89526C08437B1F42ED02DD0F82E2BD052
:107F50003CD0F601EF2C8F010F5F1F4F84911BD097
:107F6000EA94F801C1F70894C11CD11CFA94CF0C13
:107F7000D11C0EC0853739F428D08EE10CD085E9AC
:107F80000AD08FE07ACF813511F488E018D01DD067
:107F900080E101D065CF982F8091C00085FFFCCF94
:107FA0009093C60008958091C00087FFFCCF809118
:107FB000C00084FD01C0A8958091C6000895E0E648
:107FC000F0E098E1908380830895EDDF803219F02E
:107FD00088E0F5DFFFCF84E1DECF1F93182FE3DFCA
:107FE0001150E9F7F2DF1F91089580E0E8DFEE27F6
:047FF000FF270994CA
:027FFE00040479
:00000001FF
